{
  "contractName": "Person",
  "abi": [
    {
      "constant": true,
      "inputs": [],
      "name": "job",
      "outputs": [
        {
          "name": "",
          "type": "string"
        }
      ],
      "payable": false,
      "stateMutability": "view",
      "type": "function"
    },
    {
      "inputs": [],
      "payable": false,
      "stateMutability": "nonpayable",
      "type": "constructor"
    },
    {
      "constant": false,
      "inputs": [
        {
          "name": "p",
          "type": "string"
        }
      ],
      "name": "setPhone",
      "outputs": [],
      "payable": false,
      "stateMutability": "nonpayable",
      "type": "function"
    },
    {
      "constant": true,
      "inputs": [],
      "name": "getPhone",
      "outputs": [
        {
          "name": "",
          "type": "string"
        }
      ],
      "payable": false,
      "stateMutability": "view",
      "type": "function"
    },
    {
      "constant": true,
      "inputs": [],
      "name": "getCurrentAddress",
      "outputs": [
        {
          "name": "",
          "type": "address"
        }
      ],
      "payable": false,
      "stateMutability": "view",
      "type": "function"
    },
    {
      "constant": true,
      "inputs": [],
      "name": "test",
      "outputs": [
        {
          "name": "",
          "type": "string"
        }
      ],
      "payable": false,
      "stateMutability": "pure",
      "type": "function"
    },
    {
      "constant": true,
      "inputs": [],
      "name": "getWorkCity",
      "outputs": [
        {
          "name": "",
          "type": "string"
        }
      ],
      "payable": false,
      "stateMutability": "view",
      "type": "function"
    },
    {
      "constant": false,
      "inputs": [],
      "name": "kill",
      "outputs": [],
      "payable": false,
      "stateMutability": "nonpayable",
      "type": "function"
    }
  ],
  "bytecode": "0x60806040526040805190810160405280600681526020017fe4babae7b1bb00000000000000000000000000000000000000000000000000008152506001908051906020019061004f929190610218565b506040805190810160405280600281526020017f49540000000000000000000000000000000000000000000000000000000000008152506002908051906020019061009b929190610218565b506040805190810160405280600b81526020017f3133353132333435363738000000000000000000000000000000000000000000815250600390805190602001906100e7929190610218565b503480156100f457600080fd5b50600080819055506060604051908101604052806040805190810160405280600681526020017fe4b8ade59bbd000000000000000000000000000000000000000000000000000081525081526020016040805190810160405280600981526020017fe6b189e4b89ce79c81000000000000000000000000000000000000000000000081525081526020016040805190810160405280600681526020017fe4baace5b79e0000000000000000000000000000000000000000000000000000815250815250600460008201518160000190805190602001906101d5929190610298565b5060208201518160010190805190602001906101f2929190610298565b50604082015181600201908051906020019061020f929190610298565b5090505061033d565b828054600181600116156101000203166002900490600052602060002090601f016020900481019282601f1061025957805160ff1916838001178555610287565b82800160010185558215610287579182015b8281111561028657825182559160200191906001019061026b565b5b5090506102949190610318565b5090565b828054600181600116156101000203166002900490600052602060002090601f016020900481019282601f106102d957805160ff1916838001178555610307565b82800160010185558215610307579182015b828111156103065782518255916020019190600101906102eb565b5b5090506103149190610318565b5090565b61033a91905b8082111561033657600081600090555060010161031e565b5090565b90565b6106cd8061034c6000396000f300608060405260043610610083576000357c0100000000000000000000000000000000000000000000000000000000900463ffffffff16806341c0e1b51461008857806358e7ec3c1461009f5780637c2c06b11461012f5780638863bab0146101bf578063dfe68b541461024f578063e717ea61146102b8578063f8a8fd6d1461030f575b600080fd5b34801561009457600080fd5b5061009d61039f565b005b3480156100ab57600080fd5b506100b46103b8565b6040518080602001828103825283818151815260200191508051906020019080838360005b838110156100f45780820151818401526020810190506100d9565b50505050905090810190601f1680156101215780820380516001836020036101000a031916815260200191505b509250505060405180910390f35b34801561013b57600080fd5b50610144610456565b6040518080602001828103825283818151815260200191508051906020019080838360005b83811015610184578082015181840152602081019050610169565b50505050905090810190601f1680156101b15780820380516001836020036101000a031916815260200191505b509250505060405180910390f35b3480156101cb57600080fd5b506101d46104fb565b6040518080602001828103825283818151815260200191508051906020019080838360005b838110156102145780820151818401526020810190506101f9565b50505050905090810190601f1680156102415780820380516001836020036101000a031916815260200191505b509250505060405180910390f35b34801561025b57600080fd5b506102b6600480360381019080803590602001908201803590602001908080601f016020809104026020016040519081016040528093929190818152602001838380828437820191505050505050919291929050505061059d565b005b3480156102c457600080fd5b506102cd6105b7565b604051808273ffffffffffffffffffffffffffffffffffffffff1673ffffffffffffffffffffffffffffffffffffffff16815260200191505060405180910390f35b34801561031b57600080fd5b506103246105bf565b6040518080602001828103825283818151815260200191508051906020019080838360005b83811015610364578082015181840152602081019050610349565b50505050905090810190601f1680156103915780820380516001836020036101000a031916815260200191505b509250505060405180910390f35b3373ffffffffffffffffffffffffffffffffffffffff16ff5b60028054600181600116156101000203166002900480601f01602080910402602001604051908101604052809291908181526020018280546001816001161561010002031660029004801561044e5780601f106104235761010080835404028352916020019161044e565b820191906000526020600020905b81548152906001019060200180831161043157829003601f168201915b505050505081565b606060046002018054600181600116156101000203166002900480601f0160208091040260200160405190810160405280929190818152602001828054600181600116156101000203166002900480156104f15780601f106104c6576101008083540402835291602001916104f1565b820191906000526020600020905b8154815290600101906020018083116104d457829003601f168201915b5050505050905090565b606060038054600181600116156101000203166002900480601f0160208091040260200160405190810160405280929190818152602001828054600181600116156101000203166002900480156105935780601f1061056857610100808354040283529160200191610593565b820191906000526020600020905b81548152906001019060200180831161057657829003601f168201915b5050505050905090565b80600390805190602001906105b39291906105fc565b5050565b600033905090565b60606040805190810160405280600481526020017f7465737400000000000000000000000000000000000000000000000000000000815250905090565b828054600181600116156101000203166002900490600052602060002090601f016020900481019282601f1061063d57805160ff191683800117855561066b565b8280016001018555821561066b579182015b8281111561066a57825182559160200191906001019061064f565b5b509050610678919061067c565b5090565b61069e91905b8082111561069a576000816000905550600101610682565b5090565b905600a165627a7a7230582062549f4d885bfbc5f404b8e246b5125083276f6a5ee27b0139c1d6efae4d321b0029",
  "source": "pragma solidity ^0.4.23;\n/*\n   pragma:版本声明\n   solidity：开发语言\n   0.4.23：当前合约的版本 ，向上兼容，(0.4.23~0.49)均可编译\n*/\n\n// contract 关键字声明，与面向对象编程的类相似\ncontract Person {\n    uint age; // 状态变量，默认为internal\n    string internal name = \"人类\";  // internal表示只能在当前合约或者合约的子类中使用\n    string public job = \"IT\";    // public声明的属性，会自动生成同名的get函数\n    string private phone = \"13512345678\"; // private表示只能在当前合约使用\n    Address workAddress;\n\n    struct Address {  // 声明结构体\n      string country;\n      string province;\n      string city;\n    }\n\n    // 构造函数，用constructor修饰，初始化时会自动被调用\n    constructor() public {\n        age = 0;\n        workAddress = Address('中国','汉东省','京州');\n    }\n\n    // set方法，方法默认为public，能够被外部合约访问\n    function setPhone(string p) public {\n        phone = p;\n    }\n    // get方法\n    function getPhone() constant public returns (string) {\n        return phone;\n    }\n\n    // msg.sender 返回操作当前合约的账户地址\n    function getCurrentAddress() view public returns (address) {\n        return msg.sender;\n    }\n\n    function test() pure public returns (string) {\n      return \"test\";\n    }\n\n    function getWorkCity() constant public returns (string) {\n        return workAddress.city;\n    }\n\n    // 普通函数\n    function kill() public{\n        // 析构函数，调用时销毁当前合约\n        selfdestruct(msg.sender);\n    }\n}\n\n// is表示继承\ncontract Student is Person {\n    // 函数默认声明为public，不写public编译会出现警告\n    constructor() public {\n        age = 18;\n        name = \"学生仔\";\n    }\n\n    function sayHello() pure public returns (string) {\n        // 不能直接用字符串拼接，会报错\n        // return (name + age);\n        return \"hello\";\n    }\n}\n",
  "sourcePath": "/Users/wenzil/Desktop/study/truffle_demo/contracts/Person.sol",
  "compiler": {
    "name": "solc",
    "version": "0.4.23+commit.124ca40d.Emscripten.clang"
  },
  "schemaVersion": "2.0.0",
  "updatedAt": "2018-05-16T17:06:02.987Z"
}